{
  "abi": [
    {
      "anonymous": false,
      "inputs": [
        {
          "indexed": true,
          "internalType": "bytes32",
          "name": "logId",
          "type": "bytes32"
        },
        {
          "indexed": true,
          "internalType": "uint256",
          "name": "timestamp",
          "type": "uint256"
        },
        {
          "indexed": true,
          "internalType": "uint8",
          "name": "server",
          "type": "uint8"
        },
        {
          "indexed": false,
          "internalType": "string",
          "name": "message",
          "type": "string"
        }
      ],
      "name": "LogMetadata",
      "type": "event"
    },
    {
      "inputs": [
        {
          "internalType": "bytes32",
          "name": "logId",
          "type": "bytes32"
        },
        {
          "internalType": "uint256",
          "name": "timestamp",
          "type": "uint256"
        },
        {
          "internalType": "uint8",
          "name": "server",
          "type": "uint8"
        },
        {
          "internalType": "string",
          "name": "message",
          "type": "string"
        }
      ],
      "name": "emitLog",
      "outputs": [],
      "stateMutability": "nonpayable",
      "type": "function"
    },
    {
      "inputs": [
        {
          "internalType": "bytes32[]",
          "name": "logIds",
          "type": "bytes32[]"
        },
        {
          "internalType": "uint256[]",
          "name": "timestamps",
          "type": "uint256[]"
        },
        {
          "internalType": "uint8[]",
          "name": "servers",
          "type": "uint8[]"
        },
        {
          "internalType": "string[]",
          "name": "messages",
          "type": "string[]"
        }
      ],
      "name": "emitLogsBatch",
      "outputs": [],
      "stateMutability": "nonpayable",
      "type": "function"
    }
  ],
  "devdoc": {
    "kind": "dev",
    "methods": {
      "emitLogsBatch(bytes32[],uint256[],uint8[],string[])": {
        "details": "Emits multiple logs in a single transaction.",
        "params": {
          "logIds": "Array of unique identifiers for each log.",
          "messages": "Array of log messages.",
          "servers": "Array of server IDs for each log.",
          "timestamps": "Array of UNIX timestamps for each log."
        }
      }
    },
    "version": 1
  },
  "evm": {
    "assembly": "    /* \"LogEmitter.sol\":520:1843  contract LogEmitter {... */\n  mstore(0x40, 0x80)\n  callvalue\n  dup1\n  iszero\n  tag_1\n  jumpi\n  0x00\n  dup1\n  revert\ntag_1:\n  pop\n  dataSize(sub_0)\n  dup1\n  dataOffset(sub_0)\n  0x00\n  codecopy\n  0x00\n  return\nstop\n\nsub_0: assembly {\n        /* \"LogEmitter.sol\":520:1843  contract LogEmitter {... */\n      mstore(0x40, 0x80)\n      callvalue\n      dup1\n      iszero\n      tag_1\n      jumpi\n      0x00\n      dup1\n      revert\n    tag_1:\n      pop\n      jumpi(tag_2, lt(calldatasize, 0x04))\n      shr(0xe0, calldataload(0x00))\n      dup1\n      0x3e278165\n      eq\n      tag_3\n      jumpi\n      dup1\n      0x7c52d6c3\n      eq\n      tag_4\n      jumpi\n    tag_2:\n      0x00\n      dup1\n      revert\n        /* \"LogEmitter.sol\":696:901  function emitLog(... */\n    tag_3:\n      tag_5\n      0x04\n      dup1\n      calldatasize\n      sub\n      dup2\n      add\n      swap1\n      tag_6\n      swap2\n      swap1\n      tag_7\n      jump\t// in\n    tag_6:\n      tag_8\n      jump\t// in\n    tag_5:\n      stop\n        /* \"LogEmitter.sol\":1209:1841  function emitLogsBatch(... */\n    tag_4:\n      tag_9\n      0x04\n      dup1\n      calldatasize\n      sub\n      dup2\n      add\n      swap1\n      tag_10\n      swap2\n      swap1\n      tag_11\n      jump\t// in\n    tag_10:\n      tag_12\n      jump\t// in\n    tag_9:\n      stop\n        /* \"LogEmitter.sol\":696:901  function emitLog(... */\n    tag_8:\n        /* \"LogEmitter.sol\":878:884  server */\n      dup3\n        /* \"LogEmitter.sol\":848:894  LogMetadata(logId, timestamp, server, message) */\n      0xff\n      and\n        /* \"LogEmitter.sol\":867:876  timestamp */\n      dup5\n        /* \"LogEmitter.sol\":860:865  logId */\n      dup7\n        /* \"LogEmitter.sol\":848:894  LogMetadata(logId, timestamp, server, message) */\n      0x33e2cc092e205835126cfbf7b6b6e7f665cb84efbba582b33625d1c3f8b27abc\n        /* \"LogEmitter.sol\":886:893  message */\n      dup6\n      dup6\n        /* \"LogEmitter.sol\":848:894  LogMetadata(logId, timestamp, server, message) */\n      mload(0x40)\n      tag_14\n      swap3\n      swap2\n      swap1\n      tag_15\n      jump\t// in\n    tag_14:\n      mload(0x40)\n      dup1\n      swap2\n      sub\n      swap1\n      log4\n        /* \"LogEmitter.sol\":696:901  function emitLog(... */\n      pop\n      pop\n      pop\n      pop\n      pop\n      jump\t// out\n        /* \"LogEmitter.sol\":1209:1841  function emitLogsBatch(... */\n    tag_12:\n        /* \"LogEmitter.sol\":1498:1508  timestamps */\n      dup6\n      dup6\n        /* \"LogEmitter.sol\":1498:1515  timestamps.length */\n      swap1\n      pop\n        /* \"LogEmitter.sol\":1481:1487  logIds */\n      dup9\n      dup9\n        /* \"LogEmitter.sol\":1481:1494  logIds.length */\n      swap1\n      pop\n        /* \"LogEmitter.sol\":1481:1515  logIds.length == timestamps.length */\n      eq\n        /* \"LogEmitter.sol\":1481:1570  logIds.length == timestamps.length &&... */\n      dup1\n      iszero\n      tag_17\n      jumpi\n      pop\n        /* \"LogEmitter.sol\":1556:1563  servers */\n      dup4\n      dup4\n        /* \"LogEmitter.sol\":1556:1570  servers.length */\n      swap1\n      pop\n        /* \"LogEmitter.sol\":1535:1545  timestamps */\n      dup7\n      dup7\n        /* \"LogEmitter.sol\":1535:1552  timestamps.length */\n      swap1\n      pop\n        /* \"LogEmitter.sol\":1535:1570  timestamps.length == servers.length */\n      eq\n        /* \"LogEmitter.sol\":1481:1570  logIds.length == timestamps.length &&... */\n    tag_17:\n        /* \"LogEmitter.sol\":1481:1623  logIds.length == timestamps.length &&... */\n      dup1\n      iszero\n      tag_18\n      jumpi\n      pop\n        /* \"LogEmitter.sol\":1608:1616  messages */\n      dup2\n      dup2\n        /* \"LogEmitter.sol\":1608:1623  messages.length */\n      swap1\n      pop\n        /* \"LogEmitter.sol\":1590:1597  servers */\n      dup5\n      dup5\n        /* \"LogEmitter.sol\":1590:1604  servers.length */\n      swap1\n      pop\n        /* \"LogEmitter.sol\":1590:1623  servers.length == messages.length */\n      eq\n        /* \"LogEmitter.sol\":1481:1623  logIds.length == timestamps.length &&... */\n    tag_18:\n        /* \"LogEmitter.sol\":1460:1691  require(... */\n      tag_19\n      jumpi\n      mload(0x40)\n      0x08c379a000000000000000000000000000000000000000000000000000000000\n      dup2\n      mstore\n      0x04\n      add\n      tag_20\n      swap1\n      tag_21\n      jump\t// in\n    tag_20:\n      mload(0x40)\n      dup1\n      swap2\n      sub\n      swap1\n      revert\n    tag_19:\n        /* \"LogEmitter.sol\":1707:1713  uint i */\n      0x00\n        /* \"LogEmitter.sol\":1702:1835  for (uint i = 0; i < logIds.length; i++) {... */\n    tag_22:\n        /* \"LogEmitter.sol\":1723:1729  logIds */\n      dup9\n      dup9\n        /* \"LogEmitter.sol\":1723:1736  logIds.length */\n      swap1\n      pop\n        /* \"LogEmitter.sol\":1719:1720  i */\n      dup2\n        /* \"LogEmitter.sol\":1719:1736  i < logIds.length */\n      lt\n        /* \"LogEmitter.sol\":1702:1835  for (uint i = 0; i < logIds.length; i++) {... */\n      iszero\n      tag_23\n      jumpi\n        /* \"LogEmitter.sol\":1800:1807  servers */\n      dup5\n      dup5\n        /* \"LogEmitter.sol\":1808:1809  i */\n      dup3\n        /* \"LogEmitter.sol\":1800:1810  servers[i] */\n      dup2\n      dup2\n      lt\n      tag_25\n      jumpi\n      tag_26\n      tag_27\n      jump\t// in\n    tag_26:\n    tag_25:\n      swap1\n      pop\n      0x20\n      mul\n      add\n      0x20\n      dup2\n      add\n      swap1\n      tag_28\n      swap2\n      swap1\n      tag_29\n      jump\t// in\n    tag_28:\n        /* \"LogEmitter.sol\":1762:1824  LogMetadata(logIds[i], timestamps[i], servers[i], messages[i]) */\n      0xff\n      and\n        /* \"LogEmitter.sol\":1785:1795  timestamps */\n      dup8\n      dup8\n        /* \"LogEmitter.sol\":1796:1797  i */\n      dup4\n        /* \"LogEmitter.sol\":1785:1798  timestamps[i] */\n      dup2\n      dup2\n      lt\n      tag_30\n      jumpi\n      tag_31\n      tag_27\n      jump\t// in\n    tag_31:\n    tag_30:\n      swap1\n      pop\n      0x20\n      mul\n      add\n      calldataload\n        /* \"LogEmitter.sol\":1774:1780  logIds */\n      dup11\n      dup11\n        /* \"LogEmitter.sol\":1781:1782  i */\n      dup5\n        /* \"LogEmitter.sol\":1774:1783  logIds[i] */\n      dup2\n      dup2\n      lt\n      tag_32\n      jumpi\n      tag_33\n      tag_27\n      jump\t// in\n    tag_33:\n    tag_32:\n      swap1\n      pop\n      0x20\n      mul\n      add\n      calldataload\n        /* \"LogEmitter.sol\":1762:1824  LogMetadata(logIds[i], timestamps[i], servers[i], messages[i]) */\n      0x33e2cc092e205835126cfbf7b6b6e7f665cb84efbba582b33625d1c3f8b27abc\n        /* \"LogEmitter.sol\":1812:1820  messages */\n      dup7\n      dup7\n        /* \"LogEmitter.sol\":1821:1822  i */\n      dup7\n        /* \"LogEmitter.sol\":1812:1823  messages[i] */\n      dup2\n      dup2\n      lt\n      tag_34\n      jumpi\n      tag_35\n      tag_27\n      jump\t// in\n    tag_35:\n    tag_34:\n      swap1\n      pop\n      0x20\n      mul\n      dup2\n      add\n      swap1\n      tag_36\n      swap2\n      swap1\n      tag_37\n      jump\t// in\n    tag_36:\n        /* \"LogEmitter.sol\":1762:1824  LogMetadata(logIds[i], timestamps[i], servers[i], messages[i]) */\n      mload(0x40)\n      tag_38\n      swap3\n      swap2\n      swap1\n      tag_15\n      jump\t// in\n    tag_38:\n      mload(0x40)\n      dup1\n      swap2\n      sub\n      swap1\n      log4\n        /* \"LogEmitter.sol\":1738:1741  i++ */\n      dup1\n      dup1\n      tag_39\n      swap1\n      tag_40\n      jump\t// in\n    tag_39:\n      swap2\n      pop\n      pop\n        /* \"LogEmitter.sol\":1702:1835  for (uint i = 0; i < logIds.length; i++) {... */\n      jump(tag_22)\n    tag_23:\n      pop\n        /* \"LogEmitter.sol\":1209:1841  function emitLogsBatch(... */\n      pop\n      pop\n      pop\n      pop\n      pop\n      pop\n      pop\n      pop\n      jump\t// out\n        /* \"#utility.yul\":88:205   */\n    tag_42:\n        /* \"#utility.yul\":197:198   */\n      0x00\n        /* \"#utility.yul\":194:195   */\n      dup1\n        /* \"#utility.yul\":187:199   */\n      revert\n        /* \"#utility.yul\":211:328   */\n    tag_43:\n        /* \"#utility.yul\":320:321   */\n      0x00\n        /* \"#utility.yul\":317:318   */\n      dup1\n        /* \"#utility.yul\":310:322   */\n      revert\n        /* \"#utility.yul\":334:411   */\n    tag_44:\n        /* \"#utility.yul\":371:378   */\n      0x00\n        /* \"#utility.yul\":400:405   */\n      dup2\n        /* \"#utility.yul\":389:405   */\n      swap1\n      pop\n        /* \"#utility.yul\":334:411   */\n      swap2\n      swap1\n      pop\n      jump\t// out\n        /* \"#utility.yul\":417:539   */\n    tag_45:\n        /* \"#utility.yul\":490:514   */\n      tag_77\n        /* \"#utility.yul\":508:513   */\n      dup2\n        /* \"#utility.yul\":490:514   */\n      tag_44\n      jump\t// in\n    tag_77:\n        /* \"#utility.yul\":483:488   */\n      dup2\n        /* \"#utility.yul\":480:515   */\n      eq\n        /* \"#utility.yul\":470:533   */\n      tag_78\n      jumpi\n        /* \"#utility.yul\":529:530   */\n      0x00\n        /* \"#utility.yul\":526:527   */\n      dup1\n        /* \"#utility.yul\":519:531   */\n      revert\n        /* \"#utility.yul\":470:533   */\n    tag_78:\n        /* \"#utility.yul\":417:539   */\n      pop\n      jump\t// out\n        /* \"#utility.yul\":545:684   */\n    tag_46:\n        /* \"#utility.yul\":591:596   */\n      0x00\n        /* \"#utility.yul\":629:635   */\n      dup2\n        /* \"#utility.yul\":616:636   */\n      calldataload\n        /* \"#utility.yul\":607:636   */\n      swap1\n      pop\n        /* \"#utility.yul\":645:678   */\n      tag_80\n        /* \"#utility.yul\":672:677   */\n      dup2\n        /* \"#utility.yul\":645:678   */\n      tag_45\n      jump\t// in\n    tag_80:\n        /* \"#utility.yul\":545:684   */\n      swap3\n      swap2\n      pop\n      pop\n      jump\t// out\n        /* \"#utility.yul\":690:767   */\n    tag_47:\n        /* \"#utility.yul\":727:734   */\n      0x00\n        /* \"#utility.yul\":756:761   */\n      dup2\n        /* \"#utility.yul\":745:761   */\n      swap1\n      pop\n        /* \"#utility.yul\":690:767   */\n      swap2\n      swap1\n      pop\n      jump\t// out\n        /* \"#utility.yul\":773:895   */\n    tag_48:\n        /* \"#utility.yul\":846:870   */\n      tag_83\n        /* \"#utility.yul\":864:869   */\n      dup2\n        /* \"#utility.yul\":846:870   */\n      tag_47\n      jump\t// in\n    tag_83:\n        /* \"#utility.yul\":839:844   */\n      dup2\n        /* \"#utility.yul\":836:871   */\n      eq\n        /* \"#utility.yul\":826:889   */\n      tag_84\n      jumpi\n        /* \"#utility.yul\":885:886   */\n      0x00\n        /* \"#utility.yul\":882:883   */\n      dup1\n        /* \"#utility.yul\":875:887   */\n      revert\n        /* \"#utility.yul\":826:889   */\n    tag_84:\n        /* \"#utility.yul\":773:895   */\n      pop\n      jump\t// out\n        /* \"#utility.yul\":901:1040   */\n    tag_49:\n        /* \"#utility.yul\":947:952   */\n      0x00\n        /* \"#utility.yul\":985:991   */\n      dup2\n        /* \"#utility.yul\":972:992   */\n      calldataload\n        /* \"#utility.yul\":963:992   */\n      swap1\n      pop\n        /* \"#utility.yul\":1001:1034   */\n      tag_86\n        /* \"#utility.yul\":1028:1033   */\n      dup2\n        /* \"#utility.yul\":1001:1034   */\n      tag_48\n      jump\t// in\n    tag_86:\n        /* \"#utility.yul\":901:1040   */\n      swap3\n      swap2\n      pop\n      pop\n      jump\t// out\n        /* \"#utility.yul\":1046:1132   */\n    tag_50:\n        /* \"#utility.yul\":1081:1088   */\n      0x00\n        /* \"#utility.yul\":1121:1125   */\n      0xff\n        /* \"#utility.yul\":1114:1119   */\n      dup3\n        /* \"#utility.yul\":1110:1126   */\n      and\n        /* \"#utility.yul\":1099:1126   */\n      swap1\n      pop\n        /* \"#utility.yul\":1046:1132   */\n      swap2\n      swap1\n      pop\n      jump\t// out\n        /* \"#utility.yul\":1138:1256   */\n    tag_51:\n        /* \"#utility.yul\":1209:1231   */\n      tag_89\n        /* \"#utility.yul\":1225:1230   */\n      dup2\n        /* \"#utility.yul\":1209:1231   */\n      tag_50\n      jump\t// in\n    tag_89:\n        /* \"#utility.yul\":1202:1207   */\n      dup2\n        /* \"#utility.yul\":1199:1232   */\n      eq\n        /* \"#utility.yul\":1189:1250   */\n      tag_90\n      jumpi\n        /* \"#utility.yul\":1246:1247   */\n      0x00\n        /* \"#utility.yul\":1243:1244   */\n      dup1\n        /* \"#utility.yul\":1236:1248   */\n      revert\n        /* \"#utility.yul\":1189:1250   */\n    tag_90:\n        /* \"#utility.yul\":1138:1256   */\n      pop\n      jump\t// out\n        /* \"#utility.yul\":1262:1397   */\n    tag_52:\n        /* \"#utility.yul\":1306:1311   */\n      0x00\n        /* \"#utility.yul\":1344:1350   */\n      dup2\n        /* \"#utility.yul\":1331:1351   */\n      calldataload\n        /* \"#utility.yul\":1322:1351   */\n      swap1\n      pop\n        /* \"#utility.yul\":1360:1391   */\n      tag_92\n        /* \"#utility.yul\":1385:1390   */\n      dup2\n        /* \"#utility.yul\":1360:1391   */\n      tag_51\n      jump\t// in\n    tag_92:\n        /* \"#utility.yul\":1262:1397   */\n      swap3\n      swap2\n      pop\n      pop\n      jump\t// out\n        /* \"#utility.yul\":1403:1520   */\n    tag_53:\n        /* \"#utility.yul\":1512:1513   */\n      0x00\n        /* \"#utility.yul\":1509:1510   */\n      dup1\n        /* \"#utility.yul\":1502:1514   */\n      revert\n        /* \"#utility.yul\":1526:1643   */\n    tag_54:\n        /* \"#utility.yul\":1635:1636   */\n      0x00\n        /* \"#utility.yul\":1632:1633   */\n      dup1\n        /* \"#utility.yul\":1625:1637   */\n      revert\n        /* \"#utility.yul\":1649:1766   */\n    tag_55:\n        /* \"#utility.yul\":1758:1759   */\n      0x00\n        /* \"#utility.yul\":1755:1756   */\n      dup1\n        /* \"#utility.yul\":1748:1760   */\n      revert\n        /* \"#utility.yul\":1786:2339   */\n    tag_56:\n        /* \"#utility.yul\":1844:1852   */\n      0x00\n        /* \"#utility.yul\":1854:1860   */\n      dup1\n        /* \"#utility.yul\":1904:1907   */\n      dup4\n        /* \"#utility.yul\":1897:1901   */\n      0x1f\n        /* \"#utility.yul\":1889:1895   */\n      dup5\n        /* \"#utility.yul\":1885:1902   */\n      add\n        /* \"#utility.yul\":1881:1908   */\n      slt\n        /* \"#utility.yul\":1871:1993   */\n      tag_97\n      jumpi\n        /* \"#utility.yul\":1912:1991   */\n      tag_98\n      tag_53\n      jump\t// in\n    tag_98:\n        /* \"#utility.yul\":1871:1993   */\n    tag_97:\n        /* \"#utility.yul\":2025:2031   */\n      dup3\n        /* \"#utility.yul\":2012:2032   */\n      calldataload\n        /* \"#utility.yul\":2002:2032   */\n      swap1\n      pop\n        /* \"#utility.yul\":2055:2073   */\n      0xffffffffffffffff\n        /* \"#utility.yul\":2047:2053   */\n      dup2\n        /* \"#utility.yul\":2044:2074   */\n      gt\n        /* \"#utility.yul\":2041:2158   */\n      iszero\n      tag_99\n      jumpi\n        /* \"#utility.yul\":2077:2156   */\n      tag_100\n      tag_54\n      jump\t// in\n    tag_100:\n        /* \"#utility.yul\":2041:2158   */\n    tag_99:\n        /* \"#utility.yul\":2191:2195   */\n      0x20\n        /* \"#utility.yul\":2183:2189   */\n      dup4\n        /* \"#utility.yul\":2179:2196   */\n      add\n        /* \"#utility.yul\":2167:2196   */\n      swap2\n      pop\n        /* \"#utility.yul\":2245:2248   */\n      dup4\n        /* \"#utility.yul\":2237:2241   */\n      0x01\n        /* \"#utility.yul\":2229:2235   */\n      dup3\n        /* \"#utility.yul\":2225:2242   */\n      mul\n        /* \"#utility.yul\":2215:2223   */\n      dup4\n        /* \"#utility.yul\":2211:2243   */\n      add\n        /* \"#utility.yul\":2208:2249   */\n      gt\n        /* \"#utility.yul\":2205:2333   */\n      iszero\n      tag_101\n      jumpi\n        /* \"#utility.yul\":2252:2331   */\n      tag_102\n      tag_55\n      jump\t// in\n    tag_102:\n        /* \"#utility.yul\":2205:2333   */\n    tag_101:\n        /* \"#utility.yul\":1786:2339   */\n      swap3\n      pop\n      swap3\n      swap1\n      pop\n      jump\t// out\n        /* \"#utility.yul\":2345:3306   */\n    tag_7:\n        /* \"#utility.yul\":2441:2447   */\n      0x00\n        /* \"#utility.yul\":2449:2455   */\n      dup1\n        /* \"#utility.yul\":2457:2463   */\n      0x00\n        /* \"#utility.yul\":2465:2471   */\n      dup1\n        /* \"#utility.yul\":2473:2479   */\n      0x00\n        /* \"#utility.yul\":2522:2525   */\n      0x80\n        /* \"#utility.yul\":2510:2519   */\n      dup7\n        /* \"#utility.yul\":2501:2508   */\n      dup9\n        /* \"#utility.yul\":2497:2520   */\n      sub\n        /* \"#utility.yul\":2493:2526   */\n      slt\n        /* \"#utility.yul\":2490:2610   */\n      iszero\n      tag_104\n      jumpi\n        /* \"#utility.yul\":2529:2608   */\n      tag_105\n      tag_42\n      jump\t// in\n    tag_105:\n        /* \"#utility.yul\":2490:2610   */\n    tag_104:\n        /* \"#utility.yul\":2649:2650   */\n      0x00\n        /* \"#utility.yul\":2674:2727   */\n      tag_106\n        /* \"#utility.yul\":2719:2726   */\n      dup9\n        /* \"#utility.yul\":2710:2716   */\n      dup3\n        /* \"#utility.yul\":2699:2708   */\n      dup10\n        /* \"#utility.yul\":2695:2717   */\n      add\n        /* \"#utility.yul\":2674:2727   */\n      tag_46\n      jump\t// in\n    tag_106:\n        /* \"#utility.yul\":2664:2727   */\n      swap6\n      pop\n        /* \"#utility.yul\":2620:2737   */\n      pop\n        /* \"#utility.yul\":2776:2778   */\n      0x20\n        /* \"#utility.yul\":2802:2855   */\n      tag_107\n        /* \"#utility.yul\":2847:2854   */\n      dup9\n        /* \"#utility.yul\":2838:2844   */\n      dup3\n        /* \"#utility.yul\":2827:2836   */\n      dup10\n        /* \"#utility.yul\":2823:2845   */\n      add\n        /* \"#utility.yul\":2802:2855   */\n      tag_49\n      jump\t// in\n    tag_107:\n        /* \"#utility.yul\":2792:2855   */\n      swap5\n      pop\n        /* \"#utility.yul\":2747:2865   */\n      pop\n        /* \"#utility.yul\":2904:2906   */\n      0x40\n        /* \"#utility.yul\":2930:2981   */\n      tag_108\n        /* \"#utility.yul\":2973:2980   */\n      dup9\n        /* \"#utility.yul\":2964:2970   */\n      dup3\n        /* \"#utility.yul\":2953:2962   */\n      dup10\n        /* \"#utility.yul\":2949:2971   */\n      add\n        /* \"#utility.yul\":2930:2981   */\n      tag_52\n      jump\t// in\n    tag_108:\n        /* \"#utility.yul\":2920:2981   */\n      swap4\n      pop\n        /* \"#utility.yul\":2875:2991   */\n      pop\n        /* \"#utility.yul\":3058:3060   */\n      0x60\n        /* \"#utility.yul\":3047:3056   */\n      dup7\n        /* \"#utility.yul\":3043:3061   */\n      add\n        /* \"#utility.yul\":3030:3062   */\n      calldataload\n        /* \"#utility.yul\":3089:3107   */\n      0xffffffffffffffff\n        /* \"#utility.yul\":3081:3087   */\n      dup2\n        /* \"#utility.yul\":3078:3108   */\n      gt\n        /* \"#utility.yul\":3075:3192   */\n      iszero\n      tag_109\n      jumpi\n        /* \"#utility.yul\":3111:3190   */\n      tag_110\n      tag_43\n      jump\t// in\n    tag_110:\n        /* \"#utility.yul\":3075:3192   */\n    tag_109:\n        /* \"#utility.yul\":3224:3289   */\n      tag_111\n        /* \"#utility.yul\":3281:3288   */\n      dup9\n        /* \"#utility.yul\":3272:3278   */\n      dup3\n        /* \"#utility.yul\":3261:3270   */\n      dup10\n        /* \"#utility.yul\":3257:3279   */\n      add\n        /* \"#utility.yul\":3224:3289   */\n      tag_56\n      jump\t// in\n    tag_111:\n        /* \"#utility.yul\":3206:3289   */\n      swap3\n      pop\n      swap3\n      pop\n        /* \"#utility.yul\":3001:3299   */\n      pop\n        /* \"#utility.yul\":2345:3306   */\n      swap3\n      swap6\n      pop\n      swap3\n      swap6\n      swap1\n      swap4\n      pop\n      jump\t// out\n        /* \"#utility.yul\":3329:3897   */\n    tag_57:\n        /* \"#utility.yul\":3402:3410   */\n      0x00\n        /* \"#utility.yul\":3412:3418   */\n      dup1\n        /* \"#utility.yul\":3462:3465   */\n      dup4\n        /* \"#utility.yul\":3455:3459   */\n      0x1f\n        /* \"#utility.yul\":3447:3453   */\n      dup5\n        /* \"#utility.yul\":3443:3460   */\n      add\n        /* \"#utility.yul\":3439:3466   */\n      slt\n        /* \"#utility.yul\":3429:3551   */\n      tag_113\n      jumpi\n        /* \"#utility.yul\":3470:3549   */\n      tag_114\n      tag_53\n      jump\t// in\n    tag_114:\n        /* \"#utility.yul\":3429:3551   */\n    tag_113:\n        /* \"#utility.yul\":3583:3589   */\n      dup3\n        /* \"#utility.yul\":3570:3590   */\n      calldataload\n        /* \"#utility.yul\":3560:3590   */\n      swap1\n      pop\n        /* \"#utility.yul\":3613:3631   */\n      0xffffffffffffffff\n        /* \"#utility.yul\":3605:3611   */\n      dup2\n        /* \"#utility.yul\":3602:3632   */\n      gt\n        /* \"#utility.yul\":3599:3716   */\n      iszero\n      tag_115\n      jumpi\n        /* \"#utility.yul\":3635:3714   */\n      tag_116\n      tag_54\n      jump\t// in\n    tag_116:\n        /* \"#utility.yul\":3599:3716   */\n    tag_115:\n        /* \"#utility.yul\":3749:3753   */\n      0x20\n        /* \"#utility.yul\":3741:3747   */\n      dup4\n        /* \"#utility.yul\":3737:3754   */\n      add\n        /* \"#utility.yul\":3725:3754   */\n      swap2\n      pop\n        /* \"#utility.yul\":3803:3806   */\n      dup4\n        /* \"#utility.yul\":3795:3799   */\n      0x20\n        /* \"#utility.yul\":3787:3793   */\n      dup3\n        /* \"#utility.yul\":3783:3800   */\n      mul\n        /* \"#utility.yul\":3773:3781   */\n      dup4\n        /* \"#utility.yul\":3769:3801   */\n      add\n        /* \"#utility.yul\":3766:3807   */\n      gt\n        /* \"#utility.yul\":3763:3891   */\n      iszero\n      tag_117\n      jumpi\n        /* \"#utility.yul\":3810:3889   */\n      tag_118\n      tag_55\n      jump\t// in\n    tag_118:\n        /* \"#utility.yul\":3763:3891   */\n    tag_117:\n        /* \"#utility.yul\":3329:3897   */\n      swap3\n      pop\n      swap3\n      swap1\n      pop\n      jump\t// out\n        /* \"#utility.yul\":3920:4488   */\n    tag_58:\n        /* \"#utility.yul\":3993:4001   */\n      0x00\n        /* \"#utility.yul\":4003:4009   */\n      dup1\n        /* \"#utility.yul\":4053:4056   */\n      dup4\n        /* \"#utility.yul\":4046:4050   */\n      0x1f\n        /* \"#utility.yul\":4038:4044   */\n      dup5\n        /* \"#utility.yul\":4034:4051   */\n      add\n        /* \"#utility.yul\":4030:4057   */\n      slt\n        /* \"#utility.yul\":4020:4142   */\n      tag_120\n      jumpi\n        /* \"#utility.yul\":4061:4140   */\n      tag_121\n      tag_53\n      jump\t// in\n    tag_121:\n        /* \"#utility.yul\":4020:4142   */\n    tag_120:\n        /* \"#utility.yul\":4174:4180   */\n      dup3\n        /* \"#utility.yul\":4161:4181   */\n      calldataload\n        /* \"#utility.yul\":4151:4181   */\n      swap1\n      pop\n        /* \"#utility.yul\":4204:4222   */\n      0xffffffffffffffff\n        /* \"#utility.yul\":4196:4202   */\n      dup2\n        /* \"#utility.yul\":4193:4223   */\n      gt\n        /* \"#utility.yul\":4190:4307   */\n      iszero\n      tag_122\n      jumpi\n        /* \"#utility.yul\":4226:4305   */\n      tag_123\n      tag_54\n      jump\t// in\n    tag_123:\n        /* \"#utility.yul\":4190:4307   */\n    tag_122:\n        /* \"#utility.yul\":4340:4344   */\n      0x20\n        /* \"#utility.yul\":4332:4338   */\n      dup4\n        /* \"#utility.yul\":4328:4345   */\n      add\n        /* \"#utility.yul\":4316:4345   */\n      swap2\n      pop\n        /* \"#utility.yul\":4394:4397   */\n      dup4\n        /* \"#utility.yul\":4386:4390   */\n      0x20\n        /* \"#utility.yul\":4378:4384   */\n      dup3\n        /* \"#utility.yul\":4374:4391   */\n      mul\n        /* \"#utility.yul\":4364:4372   */\n      dup4\n        /* \"#utility.yul\":4360:4392   */\n      add\n        /* \"#utility.yul\":4357:4398   */\n      gt\n        /* \"#utility.yul\":4354:4482   */\n      iszero\n      tag_124\n      jumpi\n        /* \"#utility.yul\":4401:4480   */\n      tag_125\n      tag_55\n      jump\t// in\n    tag_125:\n        /* \"#utility.yul\":4354:4482   */\n    tag_124:\n        /* \"#utility.yul\":3920:4488   */\n      swap3\n      pop\n      swap3\n      swap1\n      pop\n      jump\t// out\n        /* \"#utility.yul\":4509:5075   */\n    tag_59:\n        /* \"#utility.yul\":4580:4588   */\n      0x00\n        /* \"#utility.yul\":4590:4596   */\n      dup1\n        /* \"#utility.yul\":4640:4643   */\n      dup4\n        /* \"#utility.yul\":4633:4637   */\n      0x1f\n        /* \"#utility.yul\":4625:4631   */\n      dup5\n        /* \"#utility.yul\":4621:4638   */\n      add\n        /* \"#utility.yul\":4617:4644   */\n      slt\n        /* \"#utility.yul\":4607:4729   */\n      tag_127\n      jumpi\n        /* \"#utility.yul\":4648:4727   */\n      tag_128\n      tag_53\n      jump\t// in\n    tag_128:\n        /* \"#utility.yul\":4607:4729   */\n    tag_127:\n        /* \"#utility.yul\":4761:4767   */\n      dup3\n        /* \"#utility.yul\":4748:4768   */\n      calldataload\n        /* \"#utility.yul\":4738:4768   */\n      swap1\n      pop\n        /* \"#utility.yul\":4791:4809   */\n      0xffffffffffffffff\n        /* \"#utility.yul\":4783:4789   */\n      dup2\n        /* \"#utility.yul\":4780:4810   */\n      gt\n        /* \"#utility.yul\":4777:4894   */\n      iszero\n      tag_129\n      jumpi\n        /* \"#utility.yul\":4813:4892   */\n      tag_130\n      tag_54\n      jump\t// in\n    tag_130:\n        /* \"#utility.yul\":4777:4894   */\n    tag_129:\n        /* \"#utility.yul\":4927:4931   */\n      0x20\n        /* \"#utility.yul\":4919:4925   */\n      dup4\n        /* \"#utility.yul\":4915:4932   */\n      add\n        /* \"#utility.yul\":4903:4932   */\n      swap2\n      pop\n        /* \"#utility.yul\":4981:4984   */\n      dup4\n        /* \"#utility.yul\":4973:4977   */\n      0x20\n        /* \"#utility.yul\":4965:4971   */\n      dup3\n        /* \"#utility.yul\":4961:4978   */\n      mul\n        /* \"#utility.yul\":4951:4959   */\n      dup4\n        /* \"#utility.yul\":4947:4979   */\n      add\n        /* \"#utility.yul\":4944:4985   */\n      gt\n        /* \"#utility.yul\":4941:5069   */\n      iszero\n      tag_131\n      jumpi\n        /* \"#utility.yul\":4988:5067   */\n      tag_132\n      tag_55\n      jump\t// in\n    tag_132:\n        /* \"#utility.yul\":4941:5069   */\n    tag_131:\n        /* \"#utility.yul\":4509:5075   */\n      swap3\n      pop\n      swap3\n      swap1\n      pop\n      jump\t// out\n        /* \"#utility.yul\":5097:5677   */\n    tag_60:\n        /* \"#utility.yul\":5182:5190   */\n      0x00\n        /* \"#utility.yul\":5192:5198   */\n      dup1\n        /* \"#utility.yul\":5242:5245   */\n      dup4\n        /* \"#utility.yul\":5235:5239   */\n      0x1f\n        /* \"#utility.yul\":5227:5233   */\n      dup5\n        /* \"#utility.yul\":5223:5240   */\n      add\n        /* \"#utility.yul\":5219:5246   */\n      slt\n        /* \"#utility.yul\":5209:5331   */\n      tag_134\n      jumpi\n        /* \"#utility.yul\":5250:5329   */\n      tag_135\n      tag_53\n      jump\t// in\n    tag_135:\n        /* \"#utility.yul\":5209:5331   */\n    tag_134:\n        /* \"#utility.yul\":5363:5369   */\n      dup3\n        /* \"#utility.yul\":5350:5370   */\n      calldataload\n        /* \"#utility.yul\":5340:5370   */\n      swap1\n      pop\n        /* \"#utility.yul\":5393:5411   */\n      0xffffffffffffffff\n        /* \"#utility.yul\":5385:5391   */\n      dup2\n        /* \"#utility.yul\":5382:5412   */\n      gt\n        /* \"#utility.yul\":5379:5496   */\n      iszero\n      tag_136\n      jumpi\n        /* \"#utility.yul\":5415:5494   */\n      tag_137\n      tag_54\n      jump\t// in\n    tag_137:\n        /* \"#utility.yul\":5379:5496   */\n    tag_136:\n        /* \"#utility.yul\":5529:5533   */\n      0x20\n        /* \"#utility.yul\":5521:5527   */\n      dup4\n        /* \"#utility.yul\":5517:5534   */\n      add\n        /* \"#utility.yul\":5505:5534   */\n      swap2\n      pop\n        /* \"#utility.yul\":5583:5586   */\n      dup4\n        /* \"#utility.yul\":5575:5579   */\n      0x20\n        /* \"#utility.yul\":5567:5573   */\n      dup3\n        /* \"#utility.yul\":5563:5580   */\n      mul\n        /* \"#utility.yul\":5553:5561   */\n      dup4\n        /* \"#utility.yul\":5549:5581   */\n      add\n        /* \"#utility.yul\":5546:5587   */\n      gt\n        /* \"#utility.yul\":5543:5671   */\n      iszero\n      tag_138\n      jumpi\n        /* \"#utility.yul\":5590:5669   */\n      tag_139\n      tag_55\n      jump\t// in\n    tag_139:\n        /* \"#utility.yul\":5543:5671   */\n    tag_138:\n        /* \"#utility.yul\":5097:5677   */\n      swap3\n      pop\n      swap3\n      swap1\n      pop\n      jump\t// out\n        /* \"#utility.yul\":5683:7388   */\n    tag_11:\n        /* \"#utility.yul\":5887:5893   */\n      0x00\n        /* \"#utility.yul\":5895:5901   */\n      dup1\n        /* \"#utility.yul\":5903:5909   */\n      0x00\n        /* \"#utility.yul\":5911:5917   */\n      dup1\n        /* \"#utility.yul\":5919:5925   */\n      0x00\n        /* \"#utility.yul\":5927:5933   */\n      dup1\n        /* \"#utility.yul\":5935:5941   */\n      0x00\n        /* \"#utility.yul\":5943:5949   */\n      dup1\n        /* \"#utility.yul\":5992:5995   */\n      0x80\n        /* \"#utility.yul\":5980:5989   */\n      dup10\n        /* \"#utility.yul\":5971:5978   */\n      dup12\n        /* \"#utility.yul\":5967:5990   */\n      sub\n        /* \"#utility.yul\":5963:5996   */\n      slt\n        /* \"#utility.yul\":5960:6080   */\n      iszero\n      tag_141\n      jumpi\n        /* \"#utility.yul\":5999:6078   */\n      tag_142\n      tag_42\n      jump\t// in\n    tag_142:\n        /* \"#utility.yul\":5960:6080   */\n    tag_141:\n        /* \"#utility.yul\":6147:6148   */\n      0x00\n        /* \"#utility.yul\":6136:6145   */\n      dup10\n        /* \"#utility.yul\":6132:6149   */\n      add\n        /* \"#utility.yul\":6119:6150   */\n      calldataload\n        /* \"#utility.yul\":6177:6195   */\n      0xffffffffffffffff\n        /* \"#utility.yul\":6169:6175   */\n      dup2\n        /* \"#utility.yul\":6166:6196   */\n      gt\n        /* \"#utility.yul\":6163:6280   */\n      iszero\n      tag_143\n      jumpi\n        /* \"#utility.yul\":6199:6278   */\n      tag_144\n      tag_43\n      jump\t// in\n    tag_144:\n        /* \"#utility.yul\":6163:6280   */\n    tag_143:\n        /* \"#utility.yul\":6312:6392   */\n      tag_145\n        /* \"#utility.yul\":6384:6391   */\n      dup12\n        /* \"#utility.yul\":6375:6381   */\n      dup3\n        /* \"#utility.yul\":6364:6373   */\n      dup13\n        /* \"#utility.yul\":6360:6382   */\n      add\n        /* \"#utility.yul\":6312:6392   */\n      tag_57\n      jump\t// in\n    tag_145:\n        /* \"#utility.yul\":6294:6392   */\n      swap9\n      pop\n      swap9\n      pop\n        /* \"#utility.yul\":6090:6402   */\n      pop\n        /* \"#utility.yul\":6469:6471   */\n      0x20\n        /* \"#utility.yul\":6458:6467   */\n      dup10\n        /* \"#utility.yul\":6454:6472   */\n      add\n        /* \"#utility.yul\":6441:6473   */\n      calldataload\n        /* \"#utility.yul\":6500:6518   */\n      0xffffffffffffffff\n        /* \"#utility.yul\":6492:6498   */\n      dup2\n        /* \"#utility.yul\":6489:6519   */\n      gt\n        /* \"#utility.yul\":6486:6603   */\n      iszero\n      tag_146\n      jumpi\n        /* \"#utility.yul\":6522:6601   */\n      tag_147\n      tag_43\n      jump\t// in\n    tag_147:\n        /* \"#utility.yul\":6486:6603   */\n    tag_146:\n        /* \"#utility.yul\":6635:6715   */\n      tag_148\n        /* \"#utility.yul\":6707:6714   */\n      dup12\n        /* \"#utility.yul\":6698:6704   */\n      dup3\n        /* \"#utility.yul\":6687:6696   */\n      dup13\n        /* \"#utility.yul\":6683:6705   */\n      add\n        /* \"#utility.yul\":6635:6715   */\n      tag_58\n      jump\t// in\n    tag_148:\n        /* \"#utility.yul\":6617:6715   */\n      swap7\n      pop\n      swap7\n      pop\n        /* \"#utility.yul\":6412:6725   */\n      pop\n        /* \"#utility.yul\":6792:6794   */\n      0x40\n        /* \"#utility.yul\":6781:6790   */\n      dup10\n        /* \"#utility.yul\":6777:6795   */\n      add\n        /* \"#utility.yul\":6764:6796   */\n      calldataload\n        /* \"#utility.yul\":6823:6841   */\n      0xffffffffffffffff\n        /* \"#utility.yul\":6815:6821   */\n      dup2\n        /* \"#utility.yul\":6812:6842   */\n      gt\n        /* \"#utility.yul\":6809:6926   */\n      iszero\n      tag_149\n      jumpi\n        /* \"#utility.yul\":6845:6924   */\n      tag_150\n      tag_43\n      jump\t// in\n    tag_150:\n        /* \"#utility.yul\":6809:6926   */\n    tag_149:\n        /* \"#utility.yul\":6958:7036   */\n      tag_151\n        /* \"#utility.yul\":7028:7035   */\n      dup12\n        /* \"#utility.yul\":7019:7025   */\n      dup3\n        /* \"#utility.yul\":7008:7017   */\n      dup13\n        /* \"#utility.yul\":7004:7026   */\n      add\n        /* \"#utility.yul\":6958:7036   */\n      tag_59\n      jump\t// in\n    tag_151:\n        /* \"#utility.yul\":6940:7036   */\n      swap5\n      pop\n      swap5\n      pop\n        /* \"#utility.yul\":6735:7046   */\n      pop\n        /* \"#utility.yul\":7113:7115   */\n      0x60\n        /* \"#utility.yul\":7102:7111   */\n      dup10\n        /* \"#utility.yul\":7098:7116   */\n      add\n        /* \"#utility.yul\":7085:7117   */\n      calldataload\n        /* \"#utility.yul\":7144:7162   */\n      0xffffffffffffffff\n        /* \"#utility.yul\":7136:7142   */\n      dup2\n        /* \"#utility.yul\":7133:7163   */\n      gt\n        /* \"#utility.yul\":7130:7247   */\n      iszero\n      tag_152\n      jumpi\n        /* \"#utility.yul\":7166:7245   */\n      tag_153\n      tag_43\n      jump\t// in\n    tag_153:\n        /* \"#utility.yul\":7130:7247   */\n    tag_152:\n        /* \"#utility.yul\":7279:7371   */\n      tag_154\n        /* \"#utility.yul\":7363:7370   */\n      dup12\n        /* \"#utility.yul\":7354:7360   */\n      dup3\n        /* \"#utility.yul\":7343:7352   */\n      dup13\n        /* \"#utility.yul\":7339:7361   */\n      add\n        /* \"#utility.yul\":7279:7371   */\n      tag_60\n      jump\t// in\n    tag_154:\n        /* \"#utility.yul\":7261:7371   */\n      swap3\n      pop\n      swap3\n      pop\n        /* \"#utility.yul\":7056:7381   */\n      pop\n        /* \"#utility.yul\":5683:7388   */\n      swap3\n      swap6\n      swap9\n      pop\n      swap3\n      swap6\n      swap9\n      swap1\n      swap4\n      swap7\n      pop\n      jump\t// out\n        /* \"#utility.yul\":7394:7563   */\n    tag_61:\n        /* \"#utility.yul\":7478:7489   */\n      0x00\n        /* \"#utility.yul\":7512:7518   */\n      dup3\n        /* \"#utility.yul\":7507:7510   */\n      dup3\n        /* \"#utility.yul\":7500:7519   */\n      mstore\n        /* \"#utility.yul\":7552:7556   */\n      0x20\n        /* \"#utility.yul\":7547:7550   */\n      dup3\n        /* \"#utility.yul\":7543:7557   */\n      add\n        /* \"#utility.yul\":7528:7557   */\n      swap1\n      pop\n        /* \"#utility.yul\":7394:7563   */\n      swap3\n      swap2\n      pop\n      pop\n      jump\t// out\n        /* \"#utility.yul\":7569:7723   */\n    tag_62:\n        /* \"#utility.yul\":7653:7659   */\n      dup3\n        /* \"#utility.yul\":7648:7651   */\n      dup2\n        /* \"#utility.yul\":7643:7646   */\n      dup4\n        /* \"#utility.yul\":7630:7660   */\n      calldatacopy\n        /* \"#utility.yul\":7715:7716   */\n      0x00\n        /* \"#utility.yul\":7706:7712   */\n      dup4\n        /* \"#utility.yul\":7701:7704   */\n      dup4\n        /* \"#utility.yul\":7697:7713   */\n      add\n        /* \"#utility.yul\":7690:7717   */\n      mstore\n        /* \"#utility.yul\":7569:7723   */\n      pop\n      pop\n      pop\n      jump\t// out\n        /* \"#utility.yul\":7729:7831   */\n    tag_63:\n        /* \"#utility.yul\":7770:7776   */\n      0x00\n        /* \"#utility.yul\":7821:7823   */\n      0x1f\n        /* \"#utility.yul\":7817:7824   */\n      not\n        /* \"#utility.yul\":7812:7814   */\n      0x1f\n        /* \"#utility.yul\":7805:7810   */\n      dup4\n        /* \"#utility.yul\":7801:7815   */\n      add\n        /* \"#utility.yul\":7797:7825   */\n      and\n        /* \"#utility.yul\":7787:7825   */\n      swap1\n      pop\n        /* \"#utility.yul\":7729:7831   */\n      swap2\n      swap1\n      pop\n      jump\t// out\n        /* \"#utility.yul\":7861:8165   */\n    tag_64:\n        /* \"#utility.yul\":7959:7962   */\n      0x00\n        /* \"#utility.yul\":7980:8051   */\n      tag_159\n        /* \"#utility.yul\":8044:8050   */\n      dup4\n        /* \"#utility.yul\":8039:8042   */\n      dup6\n        /* \"#utility.yul\":7980:8051   */\n      tag_61\n      jump\t// in\n    tag_159:\n        /* \"#utility.yul\":7973:8051   */\n      swap4\n      pop\n        /* \"#utility.yul\":8061:8104   */\n      tag_160\n        /* \"#utility.yul\":8097:8103   */\n      dup4\n        /* \"#utility.yul\":8092:8095   */\n      dup6\n        /* \"#utility.yul\":8085:8090   */\n      dup5\n        /* \"#utility.yul\":8061:8104   */\n      tag_62\n      jump\t// in\n    tag_160:\n        /* \"#utility.yul\":8129:8158   */\n      tag_161\n        /* \"#utility.yul\":8151:8157   */\n      dup4\n        /* \"#utility.yul\":8129:8158   */\n      tag_63\n      jump\t// in\n    tag_161:\n        /* \"#utility.yul\":8124:8127   */\n      dup5\n        /* \"#utility.yul\":8120:8159   */\n      add\n        /* \"#utility.yul\":8113:8159   */\n      swap1\n      pop\n        /* \"#utility.yul\":7861:8165   */\n      swap4\n      swap3\n      pop\n      pop\n      pop\n      jump\t// out\n        /* \"#utility.yul\":8171:8504   */\n    tag_15:\n        /* \"#utility.yul\":8294:8298   */\n      0x00\n        /* \"#utility.yul\":8332:8334   */\n      0x20\n        /* \"#utility.yul\":8321:8330   */\n      dup3\n        /* \"#utility.yul\":8317:8335   */\n      add\n        /* \"#utility.yul\":8309:8335   */\n      swap1\n      pop\n        /* \"#utility.yul\":8381:8390   */\n      dup2\n        /* \"#utility.yul\":8375:8379   */\n      dup2\n        /* \"#utility.yul\":8371:8391   */\n      sub\n        /* \"#utility.yul\":8367:8368   */\n      0x00\n        /* \"#utility.yul\":8356:8365   */\n      dup4\n        /* \"#utility.yul\":8352:8369   */\n      add\n        /* \"#utility.yul\":8345:8392   */\n      mstore\n        /* \"#utility.yul\":8409:8497   */\n      tag_163\n        /* \"#utility.yul\":8492:8496   */\n      dup2\n        /* \"#utility.yul\":8483:8489   */\n      dup5\n        /* \"#utility.yul\":8475:8481   */\n      dup7\n        /* \"#utility.yul\":8409:8497   */\n      tag_64\n      jump\t// in\n    tag_163:\n        /* \"#utility.yul\":8401:8497   */\n      swap1\n      pop\n        /* \"#utility.yul\":8171:8504   */\n      swap4\n      swap3\n      pop\n      pop\n      pop\n      jump\t// out\n        /* \"#utility.yul\":8510:8739   */\n    tag_65:\n        /* \"#utility.yul\":8650:8684   */\n      0x416c6c20696e70757420617272617973206d7573742068617665207468652073\n        /* \"#utility.yul\":8646:8647   */\n      0x00\n        /* \"#utility.yul\":8638:8644   */\n      dup3\n        /* \"#utility.yul\":8634:8648   */\n      add\n        /* \"#utility.yul\":8627:8685   */\n      mstore\n        /* \"#utility.yul\":8719:8731   */\n      0x616d65206c656e67746800000000000000000000000000000000000000000000\n        /* \"#utility.yul\":8714:8716   */\n      0x20\n        /* \"#utility.yul\":8706:8712   */\n      dup3\n        /* \"#utility.yul\":8702:8717   */\n      add\n        /* \"#utility.yul\":8695:8732   */\n      mstore\n        /* \"#utility.yul\":8510:8739   */\n      pop\n      jump\t// out\n        /* \"#utility.yul\":8745:9111   */\n    tag_66:\n        /* \"#utility.yul\":8887:8890   */\n      0x00\n        /* \"#utility.yul\":8908:8975   */\n      tag_166\n        /* \"#utility.yul\":8972:8974   */\n      0x2a\n        /* \"#utility.yul\":8967:8970   */\n      dup4\n        /* \"#utility.yul\":8908:8975   */\n      tag_61\n      jump\t// in\n    tag_166:\n        /* \"#utility.yul\":8901:8975   */\n      swap2\n      pop\n        /* \"#utility.yul\":8984:9077   */\n      tag_167\n        /* \"#utility.yul\":9073:9076   */\n      dup3\n        /* \"#utility.yul\":8984:9077   */\n      tag_65\n      jump\t// in\n    tag_167:\n        /* \"#utility.yul\":9102:9104   */\n      0x40\n        /* \"#utility.yul\":9097:9100   */\n      dup3\n        /* \"#utility.yul\":9093:9105   */\n      add\n        /* \"#utility.yul\":9086:9105   */\n      swap1\n      pop\n        /* \"#utility.yul\":8745:9111   */\n      swap2\n      swap1\n      pop\n      jump\t// out\n        /* \"#utility.yul\":9117:9536   */\n    tag_21:\n        /* \"#utility.yul\":9283:9287   */\n      0x00\n        /* \"#utility.yul\":9321:9323   */\n      0x20\n        /* \"#utility.yul\":9310:9319   */\n      dup3\n        /* \"#utility.yul\":9306:9324   */\n      add\n        /* \"#utility.yul\":9298:9324   */\n      swap1\n      pop\n        /* \"#utility.yul\":9370:9379   */\n      dup2\n        /* \"#utility.yul\":9364:9368   */\n      dup2\n        /* \"#utility.yul\":9360:9380   */\n      sub\n        /* \"#utility.yul\":9356:9357   */\n      0x00\n        /* \"#utility.yul\":9345:9354   */\n      dup4\n        /* \"#utility.yul\":9341:9358   */\n      add\n        /* \"#utility.yul\":9334:9381   */\n      mstore\n        /* \"#utility.yul\":9398:9529   */\n      tag_169\n        /* \"#utility.yul\":9524:9528   */\n      dup2\n        /* \"#utility.yul\":9398:9529   */\n      tag_66\n      jump\t// in\n    tag_169:\n        /* \"#utility.yul\":9390:9529   */\n      swap1\n      pop\n        /* \"#utility.yul\":9117:9536   */\n      swap2\n      swap1\n      pop\n      jump\t// out\n        /* \"#utility.yul\":9542:9722   */\n    tag_27:\n        /* \"#utility.yul\":9590:9667   */\n      0x4e487b7100000000000000000000000000000000000000000000000000000000\n        /* \"#utility.yul\":9587:9588   */\n      0x00\n        /* \"#utility.yul\":9580:9668   */\n      mstore\n        /* \"#utility.yul\":9687:9691   */\n      0x32\n        /* \"#utility.yul\":9684:9685   */\n      0x04\n        /* \"#utility.yul\":9677:9692   */\n      mstore\n        /* \"#utility.yul\":9711:9715   */\n      0x24\n        /* \"#utility.yul\":9708:9709   */\n      0x00\n        /* \"#utility.yul\":9701:9716   */\n      revert\n        /* \"#utility.yul\":9728:10053   */\n    tag_29:\n        /* \"#utility.yul\":9785:9791   */\n      0x00\n        /* \"#utility.yul\":9834:9836   */\n      0x20\n        /* \"#utility.yul\":9822:9831   */\n      dup3\n        /* \"#utility.yul\":9813:9820   */\n      dup5\n        /* \"#utility.yul\":9809:9832   */\n      sub\n        /* \"#utility.yul\":9805:9837   */\n      slt\n        /* \"#utility.yul\":9802:9921   */\n      iszero\n      tag_172\n      jumpi\n        /* \"#utility.yul\":9840:9919   */\n      tag_173\n      tag_42\n      jump\t// in\n    tag_173:\n        /* \"#utility.yul\":9802:9921   */\n    tag_172:\n        /* \"#utility.yul\":9960:9961   */\n      0x00\n        /* \"#utility.yul\":9985:10036   */\n      tag_174\n        /* \"#utility.yul\":10028:10035   */\n      dup5\n        /* \"#utility.yul\":10019:10025   */\n      dup3\n        /* \"#utility.yul\":10008:10017   */\n      dup6\n        /* \"#utility.yul\":10004:10026   */\n      add\n        /* \"#utility.yul\":9985:10036   */\n      tag_52\n      jump\t// in\n    tag_174:\n        /* \"#utility.yul\":9975:10036   */\n      swap2\n      pop\n        /* \"#utility.yul\":9931:10046   */\n      pop\n        /* \"#utility.yul\":9728:10053   */\n      swap3\n      swap2\n      pop\n      pop\n      jump\t// out\n        /* \"#utility.yul\":10059:10176   */\n    tag_67:\n        /* \"#utility.yul\":10168:10169   */\n      0x00\n        /* \"#utility.yul\":10165:10166   */\n      dup1\n        /* \"#utility.yul\":10158:10170   */\n      revert\n        /* \"#utility.yul\":10182:10299   */\n    tag_68:\n        /* \"#utility.yul\":10291:10292   */\n      0x00\n        /* \"#utility.yul\":10288:10289   */\n      dup1\n        /* \"#utility.yul\":10281:10293   */\n      revert\n        /* \"#utility.yul\":10305:10422   */\n    tag_69:\n        /* \"#utility.yul\":10414:10415   */\n      0x00\n        /* \"#utility.yul\":10411:10412   */\n      dup1\n        /* \"#utility.yul\":10404:10416   */\n      revert\n        /* \"#utility.yul\":10428:11153   */\n    tag_37:\n        /* \"#utility.yul\":10506:10510   */\n      0x00\n        /* \"#utility.yul\":10512:10518   */\n      dup1\n        /* \"#utility.yul\":10568:10579   */\n      dup4\n        /* \"#utility.yul\":10555:10580   */\n      calldataload\n        /* \"#utility.yul\":10668:10669   */\n      0x01\n        /* \"#utility.yul\":10662:10666   */\n      0x20\n        /* \"#utility.yul\":10658:10670   */\n      sub\n        /* \"#utility.yul\":10647:10655   */\n      dup5\n        /* \"#utility.yul\":10631:10645   */\n      calldatasize\n        /* \"#utility.yul\":10627:10656   */\n      sub\n        /* \"#utility.yul\":10623:10671   */\n      sub\n        /* \"#utility.yul\":10603:10621   */\n      dup2\n        /* \"#utility.yul\":10599:10672   */\n      slt\n        /* \"#utility.yul\":10589:10757   */\n      tag_179\n      jumpi\n        /* \"#utility.yul\":10676:10755   */\n      tag_180\n      tag_67\n      jump\t// in\n    tag_180:\n        /* \"#utility.yul\":10589:10757   */\n    tag_179:\n        /* \"#utility.yul\":10788:10806   */\n      dup1\n        /* \"#utility.yul\":10778:10786   */\n      dup5\n        /* \"#utility.yul\":10774:10807   */\n      add\n        /* \"#utility.yul\":10766:10807   */\n      swap3\n      pop\n        /* \"#utility.yul\":10840:10844   */\n      dup3\n        /* \"#utility.yul\":10827:10845   */\n      calldataload\n        /* \"#utility.yul\":10817:10845   */\n      swap2\n      pop\n        /* \"#utility.yul\":10868:10886   */\n      0xffffffffffffffff\n        /* \"#utility.yul\":10860:10866   */\n      dup3\n        /* \"#utility.yul\":10857:10887   */\n      gt\n        /* \"#utility.yul\":10854:10971   */\n      iszero\n      tag_181\n      jumpi\n        /* \"#utility.yul\":10890:10969   */\n      tag_182\n      tag_68\n      jump\t// in\n    tag_182:\n        /* \"#utility.yul\":10854:10971   */\n    tag_181:\n        /* \"#utility.yul\":10998:11000   */\n      0x20\n        /* \"#utility.yul\":10992:10996   */\n      dup4\n        /* \"#utility.yul\":10988:11001   */\n      add\n        /* \"#utility.yul\":10980:11001   */\n      swap3\n      pop\n        /* \"#utility.yul\":11055:11059   */\n      0x01\n        /* \"#utility.yul\":11047:11053   */\n      dup3\n        /* \"#utility.yul\":11043:11060   */\n      mul\n        /* \"#utility.yul\":11027:11041   */\n      calldatasize\n        /* \"#utility.yul\":11023:11061   */\n      sub\n        /* \"#utility.yul\":11017:11021   */\n      dup4\n        /* \"#utility.yul\":11013:11062   */\n      sgt\n        /* \"#utility.yul\":11010:11146   */\n      iszero\n      tag_183\n      jumpi\n        /* \"#utility.yul\":11065:11144   */\n      tag_184\n      tag_69\n      jump\t// in\n    tag_184:\n        /* \"#utility.yul\":11010:11146   */\n    tag_183:\n        /* \"#utility.yul\":10519:11153   */\n      pop\n        /* \"#utility.yul\":10428:11153   */\n      swap3\n      pop\n      swap3\n      swap1\n      pop\n      jump\t// out\n        /* \"#utility.yul\":11159:11339   */\n    tag_70:\n        /* \"#utility.yul\":11207:11284   */\n      0x4e487b7100000000000000000000000000000000000000000000000000000000\n        /* \"#utility.yul\":11204:11205   */\n      0x00\n        /* \"#utility.yul\":11197:11285   */\n      mstore\n        /* \"#utility.yul\":11304:11308   */\n      0x11\n        /* \"#utility.yul\":11301:11302   */\n      0x04\n        /* \"#utility.yul\":11294:11309   */\n      mstore\n        /* \"#utility.yul\":11328:11332   */\n      0x24\n        /* \"#utility.yul\":11325:11326   */\n      0x00\n        /* \"#utility.yul\":11318:11333   */\n      revert\n        /* \"#utility.yul\":11345:11578   */\n    tag_40:\n        /* \"#utility.yul\":11384:11387   */\n      0x00\n        /* \"#utility.yul\":11407:11431   */\n      tag_187\n        /* \"#utility.yul\":11425:11430   */\n      dup3\n        /* \"#utility.yul\":11407:11431   */\n      tag_47\n      jump\t// in\n    tag_187:\n        /* \"#utility.yul\":11398:11431   */\n      swap2\n      pop\n        /* \"#utility.yul\":11453:11519   */\n      0xffffffffffffffffffffffffffffffffffffffffffffffffffffffffffffffff\n        /* \"#utility.yul\":11446:11451   */\n      dup3\n        /* \"#utility.yul\":11443:11520   */\n      eq\n        /* \"#utility.yul\":11440:11543   */\n      iszero\n      tag_188\n      jumpi\n        /* \"#utility.yul\":11523:11541   */\n      tag_189\n      tag_70\n      jump\t// in\n    tag_189:\n        /* \"#utility.yul\":11440:11543   */\n    tag_188:\n        /* \"#utility.yul\":11570:11571   */\n      0x01\n        /* \"#utility.yul\":11563:11568   */\n      dup3\n        /* \"#utility.yul\":11559:11572   */\n      add\n        /* \"#utility.yul\":11552:11572   */\n      swap1\n      pop\n        /* \"#utility.yul\":11345:11578   */\n      swap2\n      swap1\n      pop\n      jump\t// out\n\n    auxdata: 0xa2646970667358221220e0fe270dfbdeedf559106cabbb1f9070678b25809eca03c928a866e0fef1fa2464736f6c634300080a0033\n}\n",
    "bytecode": {
      "linkReferences": {},
      "object": "608060405234801561001057600080fd5b50610877806100206000396000f3fe608060405234801561001057600080fd5b50600436106100365760003560e01c80633e2781651461003b5780637c52d6c314610057575b600080fd5b6100556004803603810190610050919061031e565b610073565b005b610071600480360381019061006c91906104fe565b6100b9565b005b8260ff1684867f33e2cc092e205835126cfbf7b6b6e7f665cb84efbba582b33625d1c3f8b27abc85856040516100aa929190610645565b60405180910390a45050505050565b85859050888890501480156100d357508383905086869050145b80156100e457508181905084849050145b610123576040517f08c379a000000000000000000000000000000000000000000000000000000000815260040161011a906106db565b60405180910390fd5b60005b888890508110156101ff57848482818110610144576101436106fb565b5b9050602002016020810190610159919061072a565b60ff1687878381811061016f5761016e6106fb565b5b905060200201358a8a84818110610189576101886106fb565b5b905060200201357f33e2cc092e205835126cfbf7b6b6e7f665cb84efbba582b33625d1c3f8b27abc8686868181106101c4576101c36106fb565b5b90506020028101906101d69190610766565b6040516101e4929190610645565b60405180910390a480806101f7906107f8565b915050610126565b505050505050505050565b600080fd5b600080fd5b6000819050919050565b61022781610214565b811461023257600080fd5b50565b6000813590506102448161021e565b92915050565b6000819050919050565b61025d8161024a565b811461026857600080fd5b50565b60008135905061027a81610254565b92915050565b600060ff82169050919050565b61029681610280565b81146102a157600080fd5b50565b6000813590506102b38161028d565b92915050565b600080fd5b600080fd5b600080fd5b60008083601f8401126102de576102dd6102b9565b5b8235905067ffffffffffffffff8111156102fb576102fa6102be565b5b602083019150836001820283011115610317576103166102c3565b5b9250929050565b60008060008060006080868803121561033a5761033961020a565b5b600061034888828901610235565b95505060206103598882890161026b565b945050604061036a888289016102a4565b935050606086013567ffffffffffffffff81111561038b5761038a61020f565b5b610397888289016102c8565b92509250509295509295909350565b60008083601f8401126103bc576103bb6102b9565b5b8235905067ffffffffffffffff8111156103d9576103d86102be565b5b6020830191508360208202830111156103f5576103f46102c3565b5b9250929050565b60008083601f840112610412576104116102b9565b5b8235905067ffffffffffffffff81111561042f5761042e6102be565b5b60208301915083602082028301111561044b5761044a6102c3565b5b9250929050565b60008083601f840112610468576104676102b9565b5b8235905067ffffffffffffffff811115610485576104846102be565b5b6020830191508360208202830111156104a1576104a06102c3565b5b9250929050565b60008083601f8401126104be576104bd6102b9565b5b8235905067ffffffffffffffff8111156104db576104da6102be565b5b6020830191508360208202830111156104f7576104f66102c3565b5b9250929050565b6000806000806000806000806080898b03121561051e5761051d61020a565b5b600089013567ffffffffffffffff81111561053c5761053b61020f565b5b6105488b828c016103a6565b9850985050602089013567ffffffffffffffff81111561056b5761056a61020f565b5b6105778b828c016103fc565b9650965050604089013567ffffffffffffffff81111561059a5761059961020f565b5b6105a68b828c01610452565b9450945050606089013567ffffffffffffffff8111156105c9576105c861020f565b5b6105d58b828c016104a8565b92509250509295985092959890939650565b600082825260208201905092915050565b82818337600083830152505050565b6000601f19601f8301169050919050565b600061062483856105e7565b93506106318385846105f8565b61063a83610607565b840190509392505050565b60006020820190508181036000830152610660818486610618565b90509392505050565b7f416c6c20696e70757420617272617973206d757374206861766520746865207360008201527f616d65206c656e67746800000000000000000000000000000000000000000000602082015250565b60006106c5602a836105e7565b91506106d082610669565b604082019050919050565b600060208201905081810360008301526106f4816106b8565b9050919050565b7f4e487b7100000000000000000000000000000000000000000000000000000000600052603260045260246000fd5b6000602082840312156107405761073f61020a565b5b600061074e848285016102a4565b91505092915050565b600080fd5b600080fd5b600080fd5b6000808335600160200384360303811261078357610782610757565b5b80840192508235915067ffffffffffffffff8211156107a5576107a461075c565b5b6020830192506001820236038313156107c1576107c0610761565b5b509250929050565b7f4e487b7100000000000000000000000000000000000000000000000000000000600052601160045260246000fd5b60006108038261024a565b91507fffffffffffffffffffffffffffffffffffffffffffffffffffffffffffffffff821415610836576108356107c9565b5b60018201905091905056fea2646970667358221220e0fe270dfbdeedf559106cabbb1f9070678b25809eca03c928a866e0fef1fa2464736f6c634300080a0033",
      "opcodes": "PUSH1 0x80 PUSH1 0x40 MSTORE CALLVALUE DUP1 ISZERO PUSH2 0x10 JUMPI PUSH1 0x0 DUP1 REVERT JUMPDEST POP PUSH2 0x877 DUP1 PUSH2 0x20 PUSH1 0x0 CODECOPY PUSH1 0x0 RETURN INVALID PUSH1 0x80 PUSH1 0x40 MSTORE CALLVALUE DUP1 ISZERO PUSH2 0x10 JUMPI PUSH1 0x0 DUP1 REVERT JUMPDEST POP PUSH1 0x4 CALLDATASIZE LT PUSH2 0x36 JUMPI PUSH1 0x0 CALLDATALOAD PUSH1 0xE0 SHR DUP1 PUSH4 0x3E278165 EQ PUSH2 0x3B JUMPI DUP1 PUSH4 0x7C52D6C3 EQ PUSH2 0x57 JUMPI JUMPDEST PUSH1 0x0 DUP1 REVERT JUMPDEST PUSH2 0x55 PUSH1 0x4 DUP1 CALLDATASIZE SUB DUP2 ADD SWAP1 PUSH2 0x50 SWAP2 SWAP1 PUSH2 0x31E JUMP JUMPDEST PUSH2 0x73 JUMP JUMPDEST STOP JUMPDEST PUSH2 0x71 PUSH1 0x4 DUP1 CALLDATASIZE SUB DUP2 ADD SWAP1 PUSH2 0x6C SWAP2 SWAP1 PUSH2 0x4FE JUMP JUMPDEST PUSH2 0xB9 JUMP JUMPDEST STOP JUMPDEST DUP3 PUSH1 0xFF AND DUP5 DUP7 PUSH32 0x33E2CC092E205835126CFBF7B6B6E7F665CB84EFBBA582B33625D1C3F8B27ABC DUP6 DUP6 PUSH1 0x40 MLOAD PUSH2 0xAA SWAP3 SWAP2 SWAP1 PUSH2 0x645 JUMP JUMPDEST PUSH1 0x40 MLOAD DUP1 SWAP2 SUB SWAP1 LOG4 POP POP POP POP POP JUMP JUMPDEST DUP6 DUP6 SWAP1 POP DUP9 DUP9 SWAP1 POP EQ DUP1 ISZERO PUSH2 0xD3 JUMPI POP DUP4 DUP4 SWAP1 POP DUP7 DUP7 SWAP1 POP EQ JUMPDEST DUP1 ISZERO PUSH2 0xE4 JUMPI POP DUP2 DUP2 SWAP1 POP DUP5 DUP5 SWAP1 POP EQ JUMPDEST PUSH2 0x123 JUMPI PUSH1 0x40 MLOAD PUSH32 0x8C379A000000000000000000000000000000000000000000000000000000000 DUP2 MSTORE PUSH1 0x4 ADD PUSH2 0x11A SWAP1 PUSH2 0x6DB JUMP JUMPDEST PUSH1 0x40 MLOAD DUP1 SWAP2 SUB SWAP1 REVERT JUMPDEST PUSH1 0x0 JUMPDEST DUP9 DUP9 SWAP1 POP DUP2 LT ISZERO PUSH2 0x1FF JUMPI DUP5 DUP5 DUP3 DUP2 DUP2 LT PUSH2 0x144 JUMPI PUSH2 0x143 PUSH2 0x6FB JUMP JUMPDEST JUMPDEST SWAP1 POP PUSH1 0x20 MUL ADD PUSH1 0x20 DUP2 ADD SWAP1 PUSH2 0x159 SWAP2 SWAP1 PUSH2 0x72A JUMP JUMPDEST PUSH1 0xFF AND DUP8 DUP8 DUP4 DUP2 DUP2 LT PUSH2 0x16F JUMPI PUSH2 0x16E PUSH2 0x6FB JUMP JUMPDEST JUMPDEST SWAP1 POP PUSH1 0x20 MUL ADD CALLDATALOAD DUP11 DUP11 DUP5 DUP2 DUP2 LT PUSH2 0x189 JUMPI PUSH2 0x188 PUSH2 0x6FB JUMP JUMPDEST JUMPDEST SWAP1 POP PUSH1 0x20 MUL ADD CALLDATALOAD PUSH32 0x33E2CC092E205835126CFBF7B6B6E7F665CB84EFBBA582B33625D1C3F8B27ABC DUP7 DUP7 DUP7 DUP2 DUP2 LT PUSH2 0x1C4 JUMPI PUSH2 0x1C3 PUSH2 0x6FB JUMP JUMPDEST JUMPDEST SWAP1 POP PUSH1 0x20 MUL DUP2 ADD SWAP1 PUSH2 0x1D6 SWAP2 SWAP1 PUSH2 0x766 JUMP JUMPDEST PUSH1 0x40 MLOAD PUSH2 0x1E4 SWAP3 SWAP2 SWAP1 PUSH2 0x645 JUMP JUMPDEST PUSH1 0x40 MLOAD DUP1 SWAP2 SUB SWAP1 LOG4 DUP1 DUP1 PUSH2 0x1F7 SWAP1 PUSH2 0x7F8 JUMP JUMPDEST SWAP2 POP POP PUSH2 0x126 JUMP JUMPDEST POP POP POP POP POP POP POP POP POP JUMP JUMPDEST PUSH1 0x0 DUP1 REVERT JUMPDEST PUSH1 0x0 DUP1 REVERT JUMPDEST PUSH1 0x0 DUP2 SWAP1 POP SWAP2 SWAP1 POP JUMP JUMPDEST PUSH2 0x227 DUP2 PUSH2 0x214 JUMP JUMPDEST DUP2 EQ PUSH2 0x232 JUMPI PUSH1 0x0 DUP1 REVERT JUMPDEST POP JUMP JUMPDEST PUSH1 0x0 DUP2 CALLDATALOAD SWAP1 POP PUSH2 0x244 DUP2 PUSH2 0x21E JUMP JUMPDEST SWAP3 SWAP2 POP POP JUMP JUMPDEST PUSH1 0x0 DUP2 SWAP1 POP SWAP2 SWAP1 POP JUMP JUMPDEST PUSH2 0x25D DUP2 PUSH2 0x24A JUMP JUMPDEST DUP2 EQ PUSH2 0x268 JUMPI PUSH1 0x0 DUP1 REVERT JUMPDEST POP JUMP JUMPDEST PUSH1 0x0 DUP2 CALLDATALOAD SWAP1 POP PUSH2 0x27A DUP2 PUSH2 0x254 JUMP JUMPDEST SWAP3 SWAP2 POP POP JUMP JUMPDEST PUSH1 0x0 PUSH1 0xFF DUP3 AND SWAP1 POP SWAP2 SWAP1 POP JUMP JUMPDEST PUSH2 0x296 DUP2 PUSH2 0x280 JUMP JUMPDEST DUP2 EQ PUSH2 0x2A1 JUMPI PUSH1 0x0 DUP1 REVERT JUMPDEST POP JUMP JUMPDEST PUSH1 0x0 DUP2 CALLDATALOAD SWAP1 POP PUSH2 0x2B3 DUP2 PUSH2 0x28D JUMP JUMPDEST SWAP3 SWAP2 POP POP JUMP JUMPDEST PUSH1 0x0 DUP1 REVERT JUMPDEST PUSH1 0x0 DUP1 REVERT JUMPDEST PUSH1 0x0 DUP1 REVERT JUMPDEST PUSH1 0x0 DUP1 DUP4 PUSH1 0x1F DUP5 ADD SLT PUSH2 0x2DE JUMPI PUSH2 0x2DD PUSH2 0x2B9 JUMP JUMPDEST JUMPDEST DUP3 CALLDATALOAD SWAP1 POP PUSH8 0xFFFFFFFFFFFFFFFF DUP2 GT ISZERO PUSH2 0x2FB JUMPI PUSH2 0x2FA PUSH2 0x2BE JUMP JUMPDEST JUMPDEST PUSH1 0x20 DUP4 ADD SWAP2 POP DUP4 PUSH1 0x1 DUP3 MUL DUP4 ADD GT ISZERO PUSH2 0x317 JUMPI PUSH2 0x316 PUSH2 0x2C3 JUMP JUMPDEST JUMPDEST SWAP3 POP SWAP3 SWAP1 POP JUMP JUMPDEST PUSH1 0x0 DUP1 PUSH1 0x0 DUP1 PUSH1 0x0 PUSH1 0x80 DUP7 DUP9 SUB SLT ISZERO PUSH2 0x33A JUMPI PUSH2 0x339 PUSH2 0x20A JUMP JUMPDEST JUMPDEST PUSH1 0x0 PUSH2 0x348 DUP9 DUP3 DUP10 ADD PUSH2 0x235 JUMP JUMPDEST SWAP6 POP POP PUSH1 0x20 PUSH2 0x359 DUP9 DUP3 DUP10 ADD PUSH2 0x26B JUMP JUMPDEST SWAP5 POP POP PUSH1 0x40 PUSH2 0x36A DUP9 DUP3 DUP10 ADD PUSH2 0x2A4 JUMP JUMPDEST SWAP4 POP POP PUSH1 0x60 DUP7 ADD CALLDATALOAD PUSH8 0xFFFFFFFFFFFFFFFF DUP2 GT ISZERO PUSH2 0x38B JUMPI PUSH2 0x38A PUSH2 0x20F JUMP JUMPDEST JUMPDEST PUSH2 0x397 DUP9 DUP3 DUP10 ADD PUSH2 0x2C8 JUMP JUMPDEST SWAP3 POP SWAP3 POP POP SWAP3 SWAP6 POP SWAP3 SWAP6 SWAP1 SWAP4 POP JUMP JUMPDEST PUSH1 0x0 DUP1 DUP4 PUSH1 0x1F DUP5 ADD SLT PUSH2 0x3BC JUMPI PUSH2 0x3BB PUSH2 0x2B9 JUMP JUMPDEST JUMPDEST DUP3 CALLDATALOAD SWAP1 POP PUSH8 0xFFFFFFFFFFFFFFFF DUP2 GT ISZERO PUSH2 0x3D9 JUMPI PUSH2 0x3D8 PUSH2 0x2BE JUMP JUMPDEST JUMPDEST PUSH1 0x20 DUP4 ADD SWAP2 POP DUP4 PUSH1 0x20 DUP3 MUL DUP4 ADD GT ISZERO PUSH2 0x3F5 JUMPI PUSH2 0x3F4 PUSH2 0x2C3 JUMP JUMPDEST JUMPDEST SWAP3 POP SWAP3 SWAP1 POP JUMP JUMPDEST PUSH1 0x0 DUP1 DUP4 PUSH1 0x1F DUP5 ADD SLT PUSH2 0x412 JUMPI PUSH2 0x411 PUSH2 0x2B9 JUMP JUMPDEST JUMPDEST DUP3 CALLDATALOAD SWAP1 POP PUSH8 0xFFFFFFFFFFFFFFFF DUP2 GT ISZERO PUSH2 0x42F JUMPI PUSH2 0x42E PUSH2 0x2BE JUMP JUMPDEST JUMPDEST PUSH1 0x20 DUP4 ADD SWAP2 POP DUP4 PUSH1 0x20 DUP3 MUL DUP4 ADD GT ISZERO PUSH2 0x44B JUMPI PUSH2 0x44A PUSH2 0x2C3 JUMP JUMPDEST JUMPDEST SWAP3 POP SWAP3 SWAP1 POP JUMP JUMPDEST PUSH1 0x0 DUP1 DUP4 PUSH1 0x1F DUP5 ADD SLT PUSH2 0x468 JUMPI PUSH2 0x467 PUSH2 0x2B9 JUMP JUMPDEST JUMPDEST DUP3 CALLDATALOAD SWAP1 POP PUSH8 0xFFFFFFFFFFFFFFFF DUP2 GT ISZERO PUSH2 0x485 JUMPI PUSH2 0x484 PUSH2 0x2BE JUMP JUMPDEST JUMPDEST PUSH1 0x20 DUP4 ADD SWAP2 POP DUP4 PUSH1 0x20 DUP3 MUL DUP4 ADD GT ISZERO PUSH2 0x4A1 JUMPI PUSH2 0x4A0 PUSH2 0x2C3 JUMP JUMPDEST JUMPDEST SWAP3 POP SWAP3 SWAP1 POP JUMP JUMPDEST PUSH1 0x0 DUP1 DUP4 PUSH1 0x1F DUP5 ADD SLT PUSH2 0x4BE JUMPI PUSH2 0x4BD PUSH2 0x2B9 JUMP JUMPDEST JUMPDEST DUP3 CALLDATALOAD SWAP1 POP PUSH8 0xFFFFFFFFFFFFFFFF DUP2 GT ISZERO PUSH2 0x4DB JUMPI PUSH2 0x4DA PUSH2 0x2BE JUMP JUMPDEST JUMPDEST PUSH1 0x20 DUP4 ADD SWAP2 POP DUP4 PUSH1 0x20 DUP3 MUL DUP4 ADD GT ISZERO PUSH2 0x4F7 JUMPI PUSH2 0x4F6 PUSH2 0x2C3 JUMP JUMPDEST JUMPDEST SWAP3 POP SWAP3 SWAP1 POP JUMP JUMPDEST PUSH1 0x0 DUP1 PUSH1 0x0 DUP1 PUSH1 0x0 DUP1 PUSH1 0x0 DUP1 PUSH1 0x80 DUP10 DUP12 SUB SLT ISZERO PUSH2 0x51E JUMPI PUSH2 0x51D PUSH2 0x20A JUMP JUMPDEST JUMPDEST PUSH1 0x0 DUP10 ADD CALLDATALOAD PUSH8 0xFFFFFFFFFFFFFFFF DUP2 GT ISZERO PUSH2 0x53C JUMPI PUSH2 0x53B PUSH2 0x20F JUMP JUMPDEST JUMPDEST PUSH2 0x548 DUP12 DUP3 DUP13 ADD PUSH2 0x3A6 JUMP JUMPDEST SWAP9 POP SWAP9 POP POP PUSH1 0x20 DUP10 ADD CALLDATALOAD PUSH8 0xFFFFFFFFFFFFFFFF DUP2 GT ISZERO PUSH2 0x56B JUMPI PUSH2 0x56A PUSH2 0x20F JUMP JUMPDEST JUMPDEST PUSH2 0x577 DUP12 DUP3 DUP13 ADD PUSH2 0x3FC JUMP JUMPDEST SWAP7 POP SWAP7 POP POP PUSH1 0x40 DUP10 ADD CALLDATALOAD PUSH8 0xFFFFFFFFFFFFFFFF DUP2 GT ISZERO PUSH2 0x59A JUMPI PUSH2 0x599 PUSH2 0x20F JUMP JUMPDEST JUMPDEST PUSH2 0x5A6 DUP12 DUP3 DUP13 ADD PUSH2 0x452 JUMP JUMPDEST SWAP5 POP SWAP5 POP POP PUSH1 0x60 DUP10 ADD CALLDATALOAD PUSH8 0xFFFFFFFFFFFFFFFF DUP2 GT ISZERO PUSH2 0x5C9 JUMPI PUSH2 0x5C8 PUSH2 0x20F JUMP JUMPDEST JUMPDEST PUSH2 0x5D5 DUP12 DUP3 DUP13 ADD PUSH2 0x4A8 JUMP JUMPDEST SWAP3 POP SWAP3 POP POP SWAP3 SWAP6 SWAP9 POP SWAP3 SWAP6 SWAP9 SWAP1 SWAP4 SWAP7 POP JUMP JUMPDEST PUSH1 0x0 DUP3 DUP3 MSTORE PUSH1 0x20 DUP3 ADD SWAP1 POP SWAP3 SWAP2 POP POP JUMP JUMPDEST DUP3 DUP2 DUP4 CALLDATACOPY PUSH1 0x0 DUP4 DUP4 ADD MSTORE POP POP POP JUMP JUMPDEST PUSH1 0x0 PUSH1 0x1F NOT PUSH1 0x1F DUP4 ADD AND SWAP1 POP SWAP2 SWAP1 POP JUMP JUMPDEST PUSH1 0x0 PUSH2 0x624 DUP4 DUP6 PUSH2 0x5E7 JUMP JUMPDEST SWAP4 POP PUSH2 0x631 DUP4 DUP6 DUP5 PUSH2 0x5F8 JUMP JUMPDEST PUSH2 0x63A DUP4 PUSH2 0x607 JUMP JUMPDEST DUP5 ADD SWAP1 POP SWAP4 SWAP3 POP POP POP JUMP JUMPDEST PUSH1 0x0 PUSH1 0x20 DUP3 ADD SWAP1 POP DUP2 DUP2 SUB PUSH1 0x0 DUP4 ADD MSTORE PUSH2 0x660 DUP2 DUP5 DUP7 PUSH2 0x618 JUMP JUMPDEST SWAP1 POP SWAP4 SWAP3 POP POP POP JUMP JUMPDEST PUSH32 0x416C6C20696E70757420617272617973206D7573742068617665207468652073 PUSH1 0x0 DUP3 ADD MSTORE PUSH32 0x616D65206C656E67746800000000000000000000000000000000000000000000 PUSH1 0x20 DUP3 ADD MSTORE POP JUMP JUMPDEST PUSH1 0x0 PUSH2 0x6C5 PUSH1 0x2A DUP4 PUSH2 0x5E7 JUMP JUMPDEST SWAP2 POP PUSH2 0x6D0 DUP3 PUSH2 0x669 JUMP JUMPDEST PUSH1 0x40 DUP3 ADD SWAP1 POP SWAP2 SWAP1 POP JUMP JUMPDEST PUSH1 0x0 PUSH1 0x20 DUP3 ADD SWAP1 POP DUP2 DUP2 SUB PUSH1 0x0 DUP4 ADD MSTORE PUSH2 0x6F4 DUP2 PUSH2 0x6B8 JUMP JUMPDEST SWAP1 POP SWAP2 SWAP1 POP JUMP JUMPDEST PUSH32 0x4E487B7100000000000000000000000000000000000000000000000000000000 PUSH1 0x0 MSTORE PUSH1 0x32 PUSH1 0x4 MSTORE PUSH1 0x24 PUSH1 0x0 REVERT JUMPDEST PUSH1 0x0 PUSH1 0x20 DUP3 DUP5 SUB SLT ISZERO PUSH2 0x740 JUMPI PUSH2 0x73F PUSH2 0x20A JUMP JUMPDEST JUMPDEST PUSH1 0x0 PUSH2 0x74E DUP5 DUP3 DUP6 ADD PUSH2 0x2A4 JUMP JUMPDEST SWAP2 POP POP SWAP3 SWAP2 POP POP JUMP JUMPDEST PUSH1 0x0 DUP1 REVERT JUMPDEST PUSH1 0x0 DUP1 REVERT JUMPDEST PUSH1 0x0 DUP1 REVERT JUMPDEST PUSH1 0x0 DUP1 DUP4 CALLDATALOAD PUSH1 0x1 PUSH1 0x20 SUB DUP5 CALLDATASIZE SUB SUB DUP2 SLT PUSH2 0x783 JUMPI PUSH2 0x782 PUSH2 0x757 JUMP JUMPDEST JUMPDEST DUP1 DUP5 ADD SWAP3 POP DUP3 CALLDATALOAD SWAP2 POP PUSH8 0xFFFFFFFFFFFFFFFF DUP3 GT ISZERO PUSH2 0x7A5 JUMPI PUSH2 0x7A4 PUSH2 0x75C JUMP JUMPDEST JUMPDEST PUSH1 0x20 DUP4 ADD SWAP3 POP PUSH1 0x1 DUP3 MUL CALLDATASIZE SUB DUP4 SGT ISZERO PUSH2 0x7C1 JUMPI PUSH2 0x7C0 PUSH2 0x761 JUMP JUMPDEST JUMPDEST POP SWAP3 POP SWAP3 SWAP1 POP JUMP JUMPDEST PUSH32 0x4E487B7100000000000000000000000000000000000000000000000000000000 PUSH1 0x0 MSTORE PUSH1 0x11 PUSH1 0x4 MSTORE PUSH1 0x24 PUSH1 0x0 REVERT JUMPDEST PUSH1 0x0 PUSH2 0x803 DUP3 PUSH2 0x24A JUMP JUMPDEST SWAP2 POP PUSH32 0xFFFFFFFFFFFFFFFFFFFFFFFFFFFFFFFFFFFFFFFFFFFFFFFFFFFFFFFFFFFFFFFF DUP3 EQ ISZERO PUSH2 0x836 JUMPI PUSH2 0x835 PUSH2 0x7C9 JUMP JUMPDEST JUMPDEST PUSH1 0x1 DUP3 ADD SWAP1 POP SWAP2 SWAP1 POP JUMP INVALID LOG2 PUSH5 0x6970667358 0x22 SLT KECCAK256 0xE0 INVALID 0x27 0xD 0xFB 0xDE 0xED CREATE2 MSIZE LT PUSH13 0xABBB1F9070678B25809ECA03C9 0x28 0xA8 PUSH7 0xE0FEF1FA246473 PUSH16 0x6C634300080A00330000000000000000 "
    },
    "gasEstimates": {
      "creation": {
        "codeDepositCost": "433400",
        "executionCost": "468",
        "totalCost": "433868"
      },
      "external": {
        "emitLog(bytes32,uint256,uint8,string)": "infinite",
        "emitLogsBatch(bytes32[],uint256[],uint8[],string[])": "infinite"
      }
    },
    "methodIdentifiers": {
      "emitLog(bytes32,uint256,uint8,string)": "3e278165",
      "emitLogsBatch(bytes32[],uint256[],uint8[],string[])": "7c52d6c3"
    }
  },
  "storageLayout": {
    "storage": [],
    "types": null
  },
  "userdoc": {
    "kind": "user",
    "methods": {},
    "version": 1
  }
}